:100000000C942A000C9447000C9447000C94470071
:100010000C9447000C9447000C9447000C94470044
:100020000C9447000C9447000C9447000C94470034
:100030000C9447000C9405070C9447000C94D206CE
:100040000C9447000C9447000C9447000C94470014
:100050000C94470011241FBECFE5D8E0DEBFCDBF12
:1000600010E0A0E6B0E0E2EDF7E202C005900D92EC
:10007000A03CB107D9F710E0A0ECB0E001C01D92A0
:10008000A43DB107E1F70E9407130C94E7130C9409
:100090000000EF92FF920F931F937B018C0120E0F1
:1000A00030E040E05FE40E94490388238CF0C801FF
:1000B000B70120E030E040E05FE40E94C1010E940F
:1000C000A9039B01AC01205030404040504806C07D
:1000D000C801B7010E94A9039B01AC01B901CA0183
:1000E0001F910F91FF90EF900895A0E0B0E0EBE733
:1000F000F0E00C94B013DC012B01FA019C919230DA
:1001000008F439C1EB018881823008F433C194309E
:1001100069F4843009F02FC111969C91119789815F
:10012000981709F428C1AFE6B0E025C1843009F47E
:1001300021C18230A9F4923009F01DC19A01AD01AC
:1001400088E0EA010990AE01E90109929E0181501F
:10015000C1F7E201898111969C918923818308C1AD
:10016000923009F407C112962D903C901397EB0141
:100170008A819B811496AD90BD90CD90DC901797AD
:10018000EC80FD800E811F819101281B390BB90184
:1001900037FF04C066277727621B730B6032710537
:1001A0000CF061C0121613066CF537014801062EDB
:1001B00004C096948794779467940A94D2F721E0C8
:1001C00030E040E050E004C0220F331F441F551FB1
:1001D0006A95D2F721503040404050402E213F21B7
:1001E00040235123211531054105510521F021E01E
:1001F00030E040E050E079018A01E628F72808293C
:1002000019293CC0232BD1F1260E371E350146019A
:10021000062E04C096948794779467940A94D2F734
:1002200021E030E040E050E004C0220F331F441FC3
:10023000551F6A95D2F721503040404050402A2146
:100240003B214C215D21211531054105510521F04E
:1002500021E030E040E050E059016A01A628B728CB
:10026000C828D9280BC0821593052CF01C01AA249C
:10027000BB24650103C0EE24FF24870111969C91E5
:10028000D20111968C91981709F445C0992339F041
:10029000A80197012A193B094C095D0906C0A6016E
:1002A00095012E193F09400B510B57FD08C01182D3
:1002B0003382228224833583468357831DC081E0A5
:1002C00081833382228288279927DC01821B930B4A
:1002D000A40BB50B84839583A683B7830DC0220F2F
:1002E000331F441F551F24833583468357838281E0
:1002F000938101979383828324813581468157813D
:10030000DA01C9010197A109B1098F5F9F4FAF4F72
:10031000BF4328F30BC0918333822282EA0CFB1C7B
:100320000C1D1D1DE482F5820683178383E0808304
:10033000248135814681578157FF1AC0C901AA27F8
:1003400097FDA095BA2F81709070A070B0705695EF
:10035000479537952795822B932BA42BB52B848318
:100360009583A683B7838281938101969383828349
:10037000DF0101C0D201CD01CDB7DEB7E2E10C94BF
:10038000CC13A0E2B0E0E7ECF1E00C94BC1369837D
:100390007A838B839C832D833E834F835887E9E048
:1003A000EE2EF12CEC0EFD1ECE010196B7010E943F
:1003B000D2048E010F5E1F4FCE010596B8010E9438
:1003C000D2048A8991E089278A8BC701B801AE01DE
:1003D000475E5F4F0E9475000E94FD03A096E6E015
:1003E0000C94D813A0E2B0E0E8EFF1E00C94BC1359
:1003F00069837A838B839C832D833E834F835887C5
:10040000F9E0EF2EF12CEC0EFD1ECE010196B701A6
:100410000E94D2048E010F5E1F4FCE010596B801D7
:100420000E94D204C701B801AE01475E5F4F0E942F
:1004300075000E94FD03A096E6E00C94D813A0E29C
:10044000B0E0E5E2F2E00C94B01369837A838B8329
:100450009C832D833E834F835887CE010196BE0136
:10046000675F7F4F0E94D204CE010596BE016F5E8A
:100470007F4F0E94D2049985923088F0898982301A
:10048000C8F0943019F4823051F404C0843029F457
:10049000923081F48FE690E0C6C0923049F420E0BB
:1004A0009A858A89981321E02A87CE010996BBC0D4
:1004B000823049F420E09A858A89981321E02A8BBA
:1004C000CE014196B0C02D843E844F8458886D88FB
:1004D0007E888F88988CEE24FF248701AA24BB2471
:1004E000650140E050E060E070E0E0E0F0E0C10174
:1004F00081709070892BE9F0E60CF71C081D191D1E
:100500009A01AB012A0D3B1D4C1D5D1D80E090E062
:10051000A0E0B0E0E614F7040805190520F481E036
:1005200090E0A0E0B0E0BA01A901480F591F6A1F8E
:100530007B1FAA0CBB1CCC1CDD1C97FE08C081E0F5
:1005400090E0A0E0B0E0A82AB92ACA2ADB2A3196B6
:10055000E032F10549F0660C771C881C991C569412
:10056000479437942794C3CFFA85EA892B893C892D
:100570008B859C85280F391F2E5F3F4F17C0CA01FE
:1005800081709070892B61F016950795F794E79428
:1005900080E090E0A0E0B0E8E82AF92A0A2B1B2BC3
:1005A00076956795579547952F5F3F4F77FDE7CF36
:1005B0000CC0440F551F661F771F17FD4160EE0CDE
:1005C000FF1C001F111F21503040403090E05907A0
:1005D00090E0690790E4790760F32B8F3C8FDB0193
:1005E000CA018F779070A070B07080349105A1051A
:1005F000B10561F447FD0AC0E114F10401051105DC
:1006000029F0405C5F4F6F4F7F4F40781A8EFE1786
:1006100011F081E08A8F4D8F5E8F6F8F78A383E01A
:10062000898FCE0149960E94FD03A096E2E10C94C9
:10063000CC13A8E1B0E0EFE1F3E00C94BC136983C4
:100640007A838B839C832D833E834F83588789E0F5
:10065000E82EF12CEC0EFD1ECE010196B7010E9492
:10066000D2048E010F5E1F4FCE010596B8010E9485
:10067000D2048985823040F08989823028F0C70110
:10068000B8010E944A0501C08FEF6896E6E00C941D
:10069000D813A8E1B0E0EFE4F3E00C94BC13698355
:1006A0007A838B839C832D833E834F83588789E095
:1006B000E82EF12CEC0EFD1ECE010196B7010E9432
:1006C000D2048E010F5E1F4FCE010596B8010E9425
:1006D000D2048985823040F08989823028F0C701B0
:1006E000B8010E944A0501C08FEF6896E6E00C94BD
:1006F000D813A8E1B0E0EFE7F3E00C94BC136983F2
:100700007A838B839C832D833E834F83588789E034
:10071000E82EF12CEC0EFD1ECE010196B7010E94D1
:10072000D2048E010F5E1F4FCE010596B8010E94C4
:10073000D2048985823040F08989823028F0C7014F
:10074000B8010E944A0501C081E06896E6E00C9479
:10075000D813ACE0B0E0EFEAF3E00C94C013698387
:100760007A838B839C83CE010196BE016B5F7F4FA2
:100770000E94D2048D81823061F1823050F1843048
:1007800021F48E81882351F12EC02F81388537FDC9
:1007900020C06E812F3131051CF06623F9F023C093
:1007A0008EE190E0821B930B29853A854B855C8511
:1007B00004C056954795379527958A95D2F76623B5
:1007C000B1F050954095309521953F4F4F4F5F4F79
:1007D0000EC020E030E040E050E009C02FEF3FEFD6
:1007E0004FEF5FE704C020E030E040E050E8B9019F
:1007F000CA012C96E2E00C94DC13DF92EF92FF9298
:100800000F931F93FC01E480F58006811781D1804E
:100810008081823048F480E090E0A0E1B0E0E82AF6
:10082000F92A0A2B1B2BA5C0843009F49FC0823003
:1008300021F4EE24FF24870105C0E114F104010531
:10084000110519F4E0E0F0E096C0628173819FEF3A
:10085000623879070CF05BC022E83FEF261B370BAC
:100860002A3131052CF020E030E040E050E02AC091
:10087000B801A701022E04C0769567955795479554
:100880000A94D2F781E090E0A0E0B0E004C0880FC5
:10089000991FAA1FBB1F2A95D2F70197A109B10979
:1008A0008E219F21A023B1230097A105B10521F03E
:1008B00081E090E0A0E0B0E09A01AB01282B392B59
:1008C0004A2B5B2BDA01C9018F779070A070B07052
:1008D00080349105A105B10539F427FF09C0205CDA
:1008E0003F4F4F4F5F4F04C0215C3F4F4F4F5F4F13
:1008F000E0E0F0E02030A0E03A07A0E04A07A0E402
:100900005A0710F0E1E0F0E079018A0127C0603871
:10091000710564F5FB01E158FF4FD801C7018F77DE
:100920009070A070B07080349105A105B10539F4C4
:10093000E7FE0DC080E490E0A0E0B0E004C08FE3EB
:1009400090E0A0E0B0E0E80EF91E0A1F1B1F17FFA1
:1009500005C016950795F794E794319687E01695AC
:100960000795F794E7948A95D1F705C0EE24FF2404
:100970008701EFEFF0E06E2F679566276795902F60
:100980009F77D794DD24D7948E2F8695492F462BB9
:10099000582F5D29B701CA011F910F91FF90EF9069
:1009A000DF900895FC01DB01408151812281622F9B
:1009B0006F7770E0221F2227221F9381892F880FD3
:1009C000822B282F30E0991F9927991F11969C930D
:1009D000119721153105A9F54115510561057105DD
:1009E00011F482E037C082E89FEF13969C938E93B8
:1009F00012979A01AB0167E0220F331F441F551F66
:100A00006A95D1F783E08C930DC0220F331F441FEA
:100A1000551F12968D919C911397019713969C9355
:100A20008E931297203080E0380780E0480780E4FA
:100A3000580758F314962D933D934D935C93179755
:100A400008952F3F310579F4411551056105710570
:100A500019F484E08C93089564FF03C081E08C93C3
:100A600012C01C9210C02F57304013963C932E9307
:100A7000129783E08C9387E0440F551F661F771F02
:100A80008A95D1F7706414964D935D936D937C9322
:100A9000179708951F93DC01FB019C91923008F495
:100AA00047C08081823008F443C0943051F41196DD
:100AB0001C91843099F58181682F70E0611B710968
:100AC0003FC0843021F0923031F48230B9F181811D
:100AD000882389F12DC011961C9111978230F1F075
:100AE00081811817D9F412962D913C911397828128
:100AF00093818217930794F028173907BCF0149656
:100B00008D919D910D90BC91A02D248135814681C0
:100B10005781281739074A075B0718F4112341F05A
:100B20000AC082179307A407B50740F4112319F0F0
:100B300061E070E005C06FEF7FEF02C060E070E041
:100B4000CB011F910895DF93CF9300D0CDB7DEB7CF
:100B50008A838091C0008A3088F48091C000882FF9
:100B600090E0FC01EF53FF4F8A8180838091C000A9
:100B70008F5F8093C00082E0898302C081E0898317
:100B800089810F900F90CF91DF910895DF93CF93DC
:100B900000D00F92CDB7DEB79B838A838091C000CF
:100BA000882311F4198212C08091C0008150809373
:100BB000C0008091C000882F90E0FC01EF53FF4FF0
:100BC0008081EA81FB81808382E0898389810F9023
:100BD0000F900F90CF91DF910895DF93CF9300D0C6
:100BE0000F92CDB7DEB71B821A821982ABE2B0E05A
:100BF000EBE2F0E0808182608C938B8180688B8354
:100C00008B818F7B8B838B8180618B838B818062D7
:100C10008B838B8182608B838B8184608B83AAE240
:100C2000B0E0EAE2F0E080818B7F8C938B8188607A
:100C30008B83E0E4F0E08B8180838091AC00909125
:100C4000AD009A838983E0E4F0E089819A81892F5D
:100C500099278083E9E2F0E089818083AAE2B0E00D
:100C6000EAE2F0E0808180618C93AAE2B0E0EAE2FF
:100C7000F0E0808188608C930F900F900F90CF915F
:100C8000DF910895DF93CF930F92CDB7DEB78983BD
:100C9000EBE2F0E08081829586958770882F90E066
:100CA000817090700097A1F3ECE2F0E0898180837D
:100CB0000F90CF91DF910895DF93CF93CDB7DEB73B
:100CC000EBE2F0E080818823DCF7ECE2F0E0808169
:100CD000CF91DF910895DF93CF9300D00F92CDB7DE
:100CE000DEB79B838A83EBE2F0E080818295869574
:100CF0008770882F90E081709070882349F0ACE273
:100D0000B0E0EA81FB8180818C9381E0898301C01E
:100D1000198289810F900F900F90CF91DF910895E4
:100D2000DF93CF9300D00F92CDB7DEB79B838A833A
:100D3000EBE2F0E0808188234CF4ECE2F0E080818B
:100D4000EA81FB81808381E0898301C019828981E6
:100D50000F900F900F90CF91DF910895DF93CF9375
:100D600000D0CDB7DEB79A83898389819A81909329
:100D7000CD008093CC000F900F90CF91DF9108951C
:100D8000DF93CF9300D0CDB7DEB79A838983898173
:100D90009A819093CF008093CE000F900F90CF91C7
:100DA000DF9108951F920F920FB60F9211242F9387
:100DB0003F934F935F936F937F938F939F93AF93E3
:100DC000BF93EF93FF93DF93CF93CDB7DEB78091BF
:100DD000CC009091CD00009729F0E091CC00F091EB
:100DE000CD000995CF91DF91FF91EF91BF91AF9128
:100DF0009F918F917F916F915F914F913F912F9133
:100E00000F900FBE0F901F9018951F920F920FB664
:100E10000F9211242F933F934F935F936F937F9380
:100E20008F939F93AF93BF93EF93FF93DF93CF93F2
:100E3000CDB7DEB78091CE009091CF00009729F01A
:100E4000E091CE00F091CF000995CF91DF91FF9115
:100E5000EF91BF91AF919F918F917F916F915F9132
:100E60004F913F912F910F900FBE0F901F901895AB
:100E7000DF93CF93CDB7DEB7AAE2B0E0EAE2F0E0CD
:100E8000808180648C93CF91DF910895DF93CF931D
:100E9000CDB7DEB7AAE2B0E0EAE2F0E08081806898
:100EA0008C93CF91DF910895DF93CF93CDB7DEB7C9
:100EB000AAE2B0E0EAE2F0E080818F7B8C93CF91F0
:100EC000DF910895DF93CF93CDB7DEB7AAE2B0E00C
:100ED000EAE2F0E080818F778C93CF91DF910895E3
:100EE000DF93CF930F92CDB7DEB78983ECE2F0E0CA
:100EF000898180830F90CF91DF910895DF93CF9305
:100F0000CDB7DEB7ECE2F0E08081CF91DF910895BC
:100F1000DF93CF9300D00F92CDB7DEB79B838A8348
:100F200019820EC08981282F30E08A819B81FC01C3
:100F3000E20FF31F80810E94420689818F5F8983BF
:100F40008981282F30E08A819B81FC01E20FF31F09
:100F50008081882339F70F900F900F90CF91DF9108
:100F60000895DF93CF93CDB7DEB72091D0003091B5
:100F7000D10080917700882F90E0F901E80FF91FE8
:100F800080818823A1F02091D0003091D100809100
:100F90007700882F90E0F901E80FF91F80810E9407
:100FA0007007809177008F5F8093770005C081E0A4
:100FB000809377000E945407CF91DF910895DF93CB
:100FC000CF9300D0CDB7DEB79A838983E981FA81C8
:100FD00080810E9442060E94380781EB97E00E94C0
:100FE000AE0689819A819093D1008093D0000F90B2
:100FF0000F90CF91DF9108950F931F93DF93CF93BD
:1010000000D00F92CDB7DEB79B838A831982898186
:10101000282F30E08A819B818C01020F131F0E94D0
:101020005C06F80180830FC089818F5F8983898185
:10103000282F30E08A819B818C01020F131F0E94B0
:101040005C06F80180838981282F30E08A819B81AA
:10105000FC01E20FF31F80818D3031F78981282F49
:1010600030E08A819B81FC01E20FF31F10820F9018
:101070000F900F90CF91DF911F910F9108950F93D3
:101080001F93DF93CF93CDB7DEB72091D20030917D
:10109000D3008091CB00882F90E08901080F191FA1
:1010A0000E947E07F80180838091CB008F5F809340
:1010B000CB00CF91DF911F910F910895DF93CF93D4
:1010C00000D0CDB7DEB79A83898389819A819093C6
:1010D000D3008093D2000E9446078FE398E00E94DD
:1010E000C0060F900F90CF91DF910895DF93CF93BB
:1010F000CDB7DEB728970FB6F894DEBF0FBECDBFD1
:101100008A836B834C838B81883008F0F4C08C8198
:10111000813009F072C08A81282F30E038872F8310
:101120008F8198858130910549F12F813885223052
:1011300031052CF48F819885009761F05BC02F8179
:1011400038852230310571F18F8198858330910582
:10115000E9F150C0AAE3B0E0EAE3F0E08081482F73
:101160008B81282F30E081E090E0022E02C0880FB2
:10117000991F0A94E2F7842B8C93BFC0A7E3B0E0D9
:10118000E7E3F0E08081482F8B81282F30E081E079
:1011900090E0022E02C0880F991F0A94E2F7842B78
:1011A0008C93ABC0A4E3B0E0E4E3F0E08081482F8F
:1011B0008B81282F30E081E090E0022E02C0880F62
:1011C000991F0A94E2F7842B8C9397C0A1E3B0E0B7
:1011D000E1E3F0E08081482F8B81282F30E081E02F
:1011E00090E0022E02C0880F991F0A94E2F7842B28
:1011F0008C9383C081E0898380C08C81882309F02F
:1012000077C08A81282F30E03E832D838D819E8197
:101210008130910559F12D813E81223031052CF428
:101220008D819E81009769F060C02D813E812230C2
:10123000310589F18D819E818330910509F440C08B
:1012400054C0AAE3B0E0EAE3F0E08081482F8B814C
:10125000282F30E081E090E0022E02C0880F991F15
:101260000A94E2F7809584238C9347C0A7E3B0E00B
:10127000E7E3F0E08081482F8B81282F30E081E088
:1012800090E0022E02C0880F991F0A94E2F7809521
:1012900084238C9332C0A4E3B0E0E4E3F0E08081E7
:1012A000482F8B81282F30E081E090E0022E02C091
:1012B000880F991F0A94E2F7809584238C931DC0B0
:1012C000A1E3B0E0E1E3F0E08081482F8B81282F9B
:1012D00030E081E090E0022E02C0880F991F0A944E
:1012E000E2F7809584238C9308C081E0898305C050
:1012F00081E0898302C081E0898328960FB6F89443
:10130000DEBF0FBECDBFCF91DF910895DF93CF93A6
:10131000CDB7DEB727970FB6F894DEBF0FBECDBFAF
:101320008A836B838B818F3FB1F58A81282F30E0D0
:101330003F832E838E819F8181309105D1F02E8154
:101340003F81223031052CF48E819F81009761F01E
:101350001FC02E813F812230310581F08E819F8117
:101360008330910581F014C0EAE3F0E08FEF8083D1
:1013700049C0E7E3F0E08FEF808344C0E4E3F0E0AE
:101380008FEF80833FC0E1E3F0E08FEF80833AC0CE
:1013900081E0898337C08B81882391F58A81282F4A
:1013A00030E03D832C838C819D8181309105C9F093
:1013B0002C813D81223031052CF48C819D81009758
:1013C00061F01BC02C813D812230310571F08C8190
:1013D0009D818330910569F010C0EAE3F0E010824E
:1013E00011C0E7E3F0E010820DC0E4E3F0E010820A
:1013F00009C0E1E3F0E0108205C081E0898302C00A
:1014000081E0898327960FB6F894DEBF0FBECDBF6B
:10141000CF91DF910895DF93CF93CDB7DEB72897B3
:101420000FB6F894DEBF0FBECDBF8A836B834C83AB
:101430008B81883008F0F4C08C81813009F072C053
:101440008A81282F30E038872F838F8198858130DB
:10145000910549F12F813885223031052CF48F8197
:101460009885009761F05BC02F8138852230310567
:1014700071F18F81988583309105E9F150C0ABE31C
:10148000B0E0EBE3F0E08081482F8B81282F30E043
:1014900081E090E0022E02C0880F991F0A94E2F7C3
:1014A000842B8C93BFC0A8E3B0E0E8E3F0E0808138
:1014B000482F8B81282F30E081E090E0022E02C07F
:1014C000880F991F0A94E2F7842B8C93ABC0A5E395
:1014D000B0E0E5E3F0E08081482F8B81282F30E0F9
:1014E00081E090E0022E02C0880F991F0A94E2F773
:1014F000842B8C9397C0A2E3B0E0E2E3F0E080811C
:10150000482F8B81282F30E081E090E0022E02C02E
:10151000880F991F0A94E2F7842B8C9383C081E093
:10152000898380C08C81882309F077C08A81282F25
:1015300030E03E832D838D819E818130910559F16C
:101540002D813E81223031052CF48D819E810097C2
:1015500069F060C02D813E812230310589F18D8195
:101560009E818330910509F440C054C0ABE3B0E0E4
:10157000EBE3F0E08081482F8B81282F30E081E081
:1015800090E0022E02C0880F991F0A94E2F780951E
:1015900084238C9347C0A8E3B0E0E8E3F0E08081C7
:1015A000482F8B81282F30E081E090E0022E02C08E
:1015B000880F991F0A94E2F7809584238C9332C098
:1015C000A5E3B0E0E5E3F0E08081482F8B81282F90
:1015D00030E081E090E0022E02C0880F991F0A944B
:1015E000E2F7809584238C931DC0A2E3B0E0E2E390
:1015F000F0E08081482F8B81282F30E081E090E05F
:10160000022E02C0880F991F0A94E2F78095842366
:101610008C9308C081E0898305C081E0898302C082
:1016200081E0898328960FB6F894DEBF0FBECDBF48
:10163000CF91DF910895DF93CF93CDB7DEB7279792
:101640000FB6F894DEBF0FBECDBF8A836B838B814C
:101650008F3FB1F58A81282F30E03F832E838E8122
:101660009F8181309105D1F02E813F81223031055B
:101670002CF48E819F81009761F01FC02E813F81E5
:101680002230310581F08E819F818330910581F078
:1016900014C0EBE3F0E08FEF808349C0E8E3F0E0B3
:1016A0008FEF808344C0E5E3F0E08FEF80833FC09D
:1016B000E2E3F0E08FEF80833AC081E0898337C0B6
:1016C0008B81882391F58A81282F30E03D832C83FC
:1016D0008C819D8181309105C9F02C813D81223022
:1016E00031052CF48C819D81009761F01BC02C8109
:1016F0003D812230310571F08C819D8183309105CF
:1017000069F010C0EBE3F0E0108211C0E8E3F0E014
:1017100010820DC0E5E3F0E0108209C0E2E3F0E0E2
:10172000108205C081E0898302C081E08983279609
:101730000FB6F894DEBF0FBECDBFCF91DF910895F5
:10174000DF93CF9300D000D00F92CDB7DEB78A835E
:101750006B838A81282F30E03D832C838C819D818F
:1017600081309105D1F02C813D81223031052CF45E
:101770008C819D81009761F01FC02C813D812230BA
:10178000310581F08C819D818330910581F014C0F9
:10179000EBE3F0E08B81808311C0E8E3F0E08B8124
:1017A00080830CC0E5E3F0E08B81808307C0E2E337
:1017B000F0E08B81808302C081E089830F900F90DD
:1017C0000F900F900F90CF91DF910895DF93CF93FB
:1017D00000D000D00F92CDB7DEB78A836B838A81A9
:1017E000282F30E03D832C838C819D8181309105B1
:1017F000D1F02C813D81223031052CF48C819D81EA
:10180000009761F01FC02C813D812230310581F0AD
:101810008C819D818330910581F014C0EAE3F0E072
:101820008B81808311C0E7E3F0E08B8180830CC063
:10183000E4E3F0E08B81808307C0E1E3F0E08B819B
:10184000808302C081E089830F900F900F900F90EA
:101850000F90CF91DF910895DF93CF9300D000D008
:1018600000D0CDB7DEB78B836C838B81843008F0DA
:101870006FC08C81883008F06BC08B81282F30E0DE
:101880003E832D834D815E814130510541F18D8133
:101890009E818230910534F42D813E8121153105E0
:1018A00061F053C04D815E814230510551F18D810F
:1018B0009E8183309105B9F148C0E9E3F0E0808171
:1018C000282F30E08C81882F90E0A90102C0559527
:1018D00047958A95E2F7CA0181708A833BC0E6E3A7
:1018E000F0E08081282F30E08C81882F90E0A901E2
:1018F00002C0559547958A95E2F7CA0181708A839F
:1019000029C0E3E3F0E08081282F30E08C81882F2C
:1019100090E0A90102C0559547958A95E2F7CA0162
:1019200081708A8317C0E0E3F0E08081282F30E0E7
:101930008C81882F90E0A90102C0559547958A9522
:10194000E2F7CA0181708A8305C081E0898302C001
:1019500081E089838A8126960FB6F894DEBF0FBE98
:10196000CDBFCF91DF9108950F931F93DF93CF9356
:10197000CDB7DEB7C455D0400FB6F894DEBF0FBE6A
:10198000CDBF80E06FEF0E94860981E061E041E019
:101990000E94760881E062E041E00E94760881E0E2
:1019A00063E041E00E947608FE01EF5AFF4F80E0BD
:1019B00090E0A0EFB1E480839183A283B3838E0192
:1019C000035B1F4FFE01EF5AFF4F608171818281DF
:1019D000938120E030E04AEF54E40E941F02DC01D2
:1019E000CB01F80180839183A283B383FE01E35B83
:1019F000FF4F608171818281938120E030E040E877
:101A00005FE30E947903882344F4FE01E55BFF4F06
:101A100081E090E09183808364C0FE01E35BFF4F2F
:101A2000608171818281938120E03FEF4FE757E42D
:101A30000E94190318160CF043C0FE01EF5AFF4F25
:101A4000608171818281938120E030E040E251E445
:101A50000E941F02DC01CB018E01055B1F4FBC0100
:101A6000CD010E944900DC01CB01F8019183808304
:101A70001FC0FE01E75BFF4F88EC90E091838083FD
:101A8000FE01E75BFF4F808191810197F1F7FE0135
:101A9000E75BFF4F91838083DE01A55BBF4FFE01B3
:101AA000E55BFF4F80819181019711969C938E9306
:101AB000FE01E55BFF4F808191810097D1F627C041
:101AC0008E01055B1F4FFE01E35BFF4F608171815B
:101AD000828193810E944900DC01CB01F80191834E
:101AE0008083DE01A95BBF4FFE01E55BFF4F808174
:101AF00091818D939C93FE01E95BFF4F80819181E1
:101B00000197F1F7FE01E95BFF4F9183808382E04B
:101B10000E94EF0FFE01ED5BFF4F80E090E0A0E739
:101B2000B1E480839183A283B3838E01015C1F4F54
:101B3000FE01ED5BFF4F608171818281938120E026
:101B400030E04AEF54E40E941F02DC01CB01F801AF
:101B500080839183A283B383FE01FF9660817181AC
:101B60008281938120E030E040E85FE30E947903C6
:101B700088232CF481E090E09EAF8DAF46C0FE013B
:101B8000FF96608171818281938120E03FEF4FE772
:101B900057E40E941903181664F5FE01ED5BFF4F30
:101BA000608171818281938120E030E040E251E4E4
:101BB0000E941F02DC01CB01BC01CD010E94490043
:101BC000DC01CB019EAF8DAF0FC088EC90E09CAFE5
:101BD0008BAF8BAD9CAD0197F1F79CAF8BAF8DAD0B
:101BE0009EAD01979EAF8DAF8DAD9EAD009769F70D
:101BF00016C0FE01FF9660817181828193810E94EF
:101C00004900DC01CB019EAF8DAF8DAD9EAD9AAF8B
:101C100089AF89AD9AAD0197F1F79AAF89AF88E3A3
:101C20000E94EF0F80E090E0A0E8BFE38DAB9EAB99
:101C3000AFABB8AF6DA97EA98FA998AD20E030E019
:101C40004AEF54E40E941F02DC01CB0189AB9AAB3E
:101C5000ABABBCAB69A97AA98BA99CA920E030E009
:101C600040E85FE30E94790388232CF481E090E050
:101C700098AB8FA73FC069A97AA98BA99CA920E03E
:101C80003FEF4FE757E40E94190318164CF56DA972
:101C90007EA98FA998AD20E030E040E251E40E9497
:101CA0001F02DC01CB01BC01CD010E944900DC0117
:101CB000CB0198AB8FA70FC088EC90E09EA78DA7B3
:101CC0008DA59EA50197F1F79EA78DA78FA598A931
:101CD000019798AB8FA78FA598A9009769F714C0B3
:101CE00069A97AA98BA99CA90E944900DC01CB01B2
:101CF00098AB8FA78FA598A99CA78BA78BA59CA510
:101D00000197F1F79CA78BA78EE00E94EF0F80E070
:101D100090E0A0E8BFE38FA398A7A9A7BAA76FA1F7
:101D200078A589A59AA520E030E04AEF54E40E9406
:101D30001F02DC01CB018BA39CA3ADA3BEA36BA1AF
:101D40007CA18DA19EA120E030E040E85FE30E94ED
:101D5000790388232CF481E090E09AA389A33FC003
:101D60006BA17CA18DA19EA120E03FEF4FE757E43E
:101D70000E94190318164CF56FA178A589A59AA59C
:101D800020E030E040E251E40E941F02DC01CB0180
:101D9000BC01CD010E944900DC01CB019AA389A3BB
:101DA0000FC088EC90E098A38F8F8F8D98A101973A
:101DB000F1F798A38F8F89A19AA101979AA389A37C
:101DC00089A19AA1009769F714C06BA17CA18DA18C
:101DD0009EA10E944900DC01CB019AA389A389A19D
:101DE0009AA19E8F8D8F8D8D9E8D0197F1F79E8F7D
:101DF0008D8F81E00E94EF0F80E090E0A0E7B1E4DA
:101E0000898F9A8FAB8FBC8F698D7A8D8B8D9C8DCE
:101E100020E030E04AEF54E40E941F02DC01CB01D5
:101E20008D8B9E8BAF8BB88F6D897E898F89988DB6
:101E300020E030E040E85FE30E94790388232CF43F
:101E400081E090E09C8B8B8B3FC06D897E898F8970
:101E5000988D20E03FEF4FE757E40E9419031816D2
:101E60004CF5698D7A8D8B8D9C8D20E030E040E2C1
:101E700051E40E941F02DC01CB01BC01CD010E9494
:101E80004900DC01CB019C8B8B8B0FC088EC90E070
:101E90009A8B898B89899A890197F1F79A8B898B1B
:101EA0008B899C8901979C8B8B8B8B899C89009754
:101EB00069F714C06D897E898F89988D0E944900C9
:101EC000DC01CB019C8B8B8B8B899C89988B8F87BA
:101ED0008F8598890197F1F7988B8F8786E00E940C
:101EE000EF0F80E090E0A0E0B0E48B879C87AD87A7
:101EF000BE876B857C858D859E8520E030E04AEF2E
:101F000054E40E941F02DC01CB018F839887A987CC
:101F1000BA876F81788589859A8520E030E040E82E
:101F20005FE30E94790388232CF481E090E09E8394
:101F30008D833FC06F81788589859A8520E03FEF4A
:101F40004FE757E40E94190318164CF56B857C8502
:101F50008D859E8520E030E040E251E40E941F0222
:101F6000DC01CB01BC01CD010E944900DC01CB01A9
:101F70009E838D830FC088EC90E09C838B838B8144
:101F80009C810197F1F79C838B838D819E810197C2
:101F90009E838D838D819E81009769F714C06F8128
:101FA000788589859A850E944900DC01CB019E8352
:101FB0008D838D819E819A83898389819A810197FE
:101FC000F1F79A838983CC5ADF4F0FB6F894DEBFBE
:101FD0000FBECDBFCF91DF911F910F910895DF9379
:101FE000CF93CDB7DEB76D970FB6F894DEBF0FBEB7
:101FF000CDBF8D8F81E061E040E00E940B0A81E05F
:1020000062E040E00E940B0A80E06D8D0E94A00B10
:1020100081E063E041E00E940B0A80E090E0A0E0F4
:10202000B0E4898F9A8FAB8FBC8F698D7A8D8B8D41
:102030009C8D20E030E04AEF54E40E941F02DC0156
:10204000CB018D8B9E8BAF8BB88F6D897E898F89ED
:10205000988D20E030E040E85FE30E947903882318
:102060002CF481E090E09C8B8B8B3FC06D897E8946
:102070008F89988D20E03FEF4FE757E40E941903C6
:1020800018164CF5698D7A8D8B8D9C8D20E030E093
:1020900040E251E40E941F02DC01CB01BC01CD01F2
:1020A0000E944900DC01CB019C8B8B8B0FC088EC1C
:1020B00090E09A8B898B89899A890197F1F79A8B9D
:1020C000898B8B899C8901979C8B8B8B8B899C89B5
:1020D000009769F714C06D897E898F89988D0E9459
:1020E0004900DC01CB019C8B8B8B8B899C89988B65
:1020F0008F878F8598890197F1F7988B8F8781E07B
:1021000063E040E00E940B0A80E090E0A0E0B0E4D1
:102110008B879C87AD87BE876B857C858D859E85EB
:1021200020E030E04AEF54E40E941F02DC01CB01C2
:102130008F839887A987BA876F81788589859A85E3
:1021400020E030E040E85FE30E94790388232CF42C
:1021500081E090E09E838D833FC06F817885898583
:102160009A8520E03FEF4FE757E40E9419031816C5
:102170004CF56B857C858D859E8520E030E040E2C6
:1021800051E40E941F02DC01CB01BC01CD010E9481
:102190004900DC01CB019E838D830FC088EC90E069
:1021A0009C838B838B819C810197F1F79C838B832C
:1021B0008D819E8101979E838D838D819E81009765
:1021C00069F714C06F81788589859A850E944900D6
:1021D000DC01CB019E838D838D819E819A838983CF
:1021E00089819A810197F1F79A83898381E063E07D
:1021F00041E00E940B0A6D960FB6F894DEBF0FBE49
:10220000CDBFCF91DF910895DF93CF93CDB7DEB7E8
:102210006D970FB6F894DEBF0FBECDBF8D8F81E0F6
:1022200061E041E00E940B0A81E062E040E00E9430
:102230000B0A81E063E041E00E940B0A80E06D8DB3
:102240000E94A00B81E063E040E00E940B0A80E066
:1022500090E0A0EAB0E4898F9A8FAB8FBC8F698D34
:102260007A8D8B8D9C8D20E030E04AEF54E40E9403
:102270001F02DC01CB018D8B9E8BAF8BB88F6D89DC
:102280007E898F89988D20E030E040E85FE30E94EE
:10229000790388232CF481E090E09C8B8B8B3FC0EA
:1022A0006D897E898F89988D20E03FEF4FE757E455
:1022B0000E94190318164CF5698D7A8D8B8D9C8DB3
:1022C00020E030E040E251E40E941F02DC01CB013B
:1022D000BC01CD010E944900DC01CB019C8B8B8BA2
:1022E0000FC088EC90E09A8B898B89899A89019735
:1022F000F1F79A8B898B8B899C8901979C8B8B8BAF
:102300008B899C89009769F714C06D897E898F89B4
:10231000988D0E944900DC01CB019C8B8B8B8B89B3
:102320009C89988B8F878F8598890197F1F7988B77
:102330008F8781E063E041E00E940B0A80E090E03B
:10234000A0E2B1E48B879C87AD87BE876B857C85D7
:102350008D859E8520E030E04AEF54E40E941F0204
:10236000DC01CB018F839887A987BA876F81788535
:1023700089859A8520E030E040E85FE30E94790398
:1023800088232CF481E090E09E838D833FC06F8191
:10239000788589859A8520E03FEF4FE757E40E94D2
:1023A000190318164CF56B857C858D859E8520E07C
:1023B00030E040E251E40E941F02DC01CB01BC018D
:1023C000CD010E944900DC01CB019E838D830FC0AB
:1023D00088EC90E09C838B838B819C810197F1F743
:1023E0009C838B838D819E8101979E838D838D81BC
:1023F0009E81009769F714C06F81788589859A85D9
:102400000E944900DC01CB019E838D838D819E81DA
:102410009A83898389819A810197F1F79A838983C5
:102420006D960FB6F894DEBF0FBECDBFCF91DF9192
:102430000895DF93CF9300D0CDB7DEB79A83898319
:1024400089819A8120E137E2B9010E949C1328EE2C
:1024500033E0B9010E949C13CB01805D0E940411FE
:1024600089819A8128EE33E0B9010E949C1324E609
:1024700030E0B9010E949C13CB01805D0E940411E1
:1024800089819A8124E630E0B9010E949C132AE0F8
:1024900030E0B9010E949C13CB01805D0E940411C1
:1024A00089819A812AE030E0B9010E949C13805D05
:1024B0000E9404110F900F90CF91DF910895DF9348
:1024C000CF93CDB7DEB72E970FB6F894DEBF0FBE11
:1024D000CDBF9E878D871A828D859E85009711F5C9
:1024E00080E30E94041139C08A81E82FF0E08D85D5
:1024F0009E852AE030E0B9010E949C13282F205DC0
:10250000CE010396E80FF91F20838D859E852AE072
:1025100030E0B9010E949C13CB019E878D878A8190
:102520008F5F8A838D859E850097F1F68A818983E6
:1025300011C08981882F90E09C0121503040CE014C
:102540000396FC01E20FF31F80810E940411898130
:10255000815089838981882361F72E960FB6F8947C
:10256000DEBF0FBECDBFCF91DF910895DF93CF9334
:1025700000D000D0CDB7DEB789836A838A81282F47
:1025800030E03C832B838B819C818130910531F03D
:102590002B813C812230310531F009C0898181587D
:1025A0000E94EF0F04C0898181540E94EF0F0F90A9
:1025B0000F900F900F90CF91DF910895DF93CF93FD
:1025C00000D00F92CDB7DEB79B838A8319820EC0ED
:1025D0008981282F30E08A819B81FC01E20FF31F63
:1025E00080810E94041189818F5F89838981282FCE
:1025F00030E08A819B81FC01E20FF31F80818823F8
:1026000039F70F900F900F90CF91DF910895DF93DE
:10261000CF93CDB7DEB7C257D0400FB6F894DEBF28
:102620000FBECDBF0E94B40C0E94ED0580E690E085
:102630000E948807CE010F960E94FC0781E061E0AE
:102640000E94B612CE010F960E94DE1280E090E04A
:10265000AAE7B4E48B879C87AD87BE876B857C85B2
:102660008D859E8520E030E04AEF54E40E941F02F1
:10267000DC01CB018F839887A987BA876F81788522
:1026800089859A8520E030E040E85FE30E94790385
:1026900088232CF481E090E09E838D833FC06F817E
:1026A000788589859A8520E03FEF4FE757E40E94BF
:1026B000190318164CF56B857C858D859E8520E069
:1026C00030E040E251E40E941F02DC01CB01BC017A
:1026D000CD010E944900DC01CB019E838D830FC098
:1026E00088EC90E09C838B838B819C810197F1F730
:1026F0009C838B838D819E8101979E838D838D81A9
:102700009E81009769F714C06F81788589859A85C5
:102710000E944900DC01CB019E838D838D819E81C7
:102720009A83898389819A810197F1F79A838983B2
:1027300081E00E94EF0F7ECFAA1BBB1B51E107C0B7
:10274000AA1FBB1FA617B70710F0A61BB70B881F41
:10275000991F5A95A9F780959095BC01CD010895D0
:102760002F923F924F925F926F927F928F929F92A1
:10277000AF92BF92CF92DF92EF92FF920F931F938F
:10278000CF93DF93CDB7DEB7CA1BDB0B0FB6F89440
:10279000DEBF0FBECDBF09942A88398848885F8480
:1027A0006E847D848C849B84AA84B984C884DF80F1
:1027B000EE80FD800C811B81AA81B981CE0FD11DD5
:1027C0000FB6F894DEBF0FBECDBFED010895F894AB
:0227D000FFCF39
:1027D20048656C6C6F205465726D696E616C0000A7
:1027E2000000000000000001670033001900100023
:1027F2000C000800CF00670033002200190010000F
:10280200A001CF006700440033002200CF00670020
:102812003300220019001000A001CF00670044001D
:10282200330022004003A001CF008A006700440069
:00000001FF
